{
  "_format": "hh-sol-artifact-1",
  "contractName": "ProposalVoteFactory",
  "sourceName": "contracts/ProposalVoteFactory.sol",
  "abi": [
    {
      "inputs": [
        {
          "internalType": "uint256",
          "name": "",
          "type": "uint256"
        }
      ],
      "name": "allContracts",
      "outputs": [
        {
          "internalType": "address",
          "name": "deployer",
          "type": "address"
        },
        {
          "internalType": "address",
          "name": "deployedContract",
          "type": "address"
        }
      ],
      "stateMutability": "view",
      "type": "function"
    },
    {
      "inputs": [
        {
          "internalType": "address",
          "name": "_proposalVote",
          "type": "address"
        },
        {
          "internalType": "string",
          "name": "_title",
          "type": "string"
        },
        {
          "internalType": "string",
          "name": "_desc",
          "type": "string"
        },
        {
          "internalType": "uint16",
          "name": "_quorum",
          "type": "uint16"
        }
      ],
      "name": "createProposal",
      "outputs": [],
      "stateMutability": "nonpayable",
      "type": "function"
    },
    {
      "inputs": [],
      "name": "deployProposalVote",
      "outputs": [
        {
          "internalType": "address",
          "name": "contractAddress_",
          "type": "address"
        }
      ],
      "stateMutability": "nonpayable",
      "type": "function"
    },
    {
      "inputs": [],
      "name": "getAllDeployedContracts",
      "outputs": [
        {
          "components": [
            {
              "internalType": "address",
              "name": "deployer",
              "type": "address"
            },
            {
              "internalType": "address",
              "name": "deployedContract",
              "type": "address"
            }
          ],
          "internalType": "struct ProposalVoteFactory.DeployedContractInfo[]",
          "name": "",
          "type": "tuple[]"
        }
      ],
      "stateMutability": "view",
      "type": "function"
    },
    {
      "inputs": [],
      "name": "getAllUserDeployedContracts",
      "outputs": [
        {
          "components": [
            {
              "internalType": "address",
              "name": "deployer",
              "type": "address"
            },
            {
              "internalType": "address",
              "name": "deployedContract",
              "type": "address"
            }
          ],
          "internalType": "struct ProposalVoteFactory.DeployedContractInfo[]",
          "name": "",
          "type": "tuple[]"
        }
      ],
      "stateMutability": "view",
      "type": "function"
    },
    {
      "inputs": [
        {
          "internalType": "uint256",
          "name": "contractIndex",
          "type": "uint256"
        },
        {
          "internalType": "uint8",
          "name": "proposalIndex",
          "type": "uint8"
        }
      ],
      "name": "getProposalFromContract",
      "outputs": [
        {
          "internalType": "string",
          "name": "title_",
          "type": "string"
        },
        {
          "internalType": "string",
          "name": "desc_",
          "type": "string"
        },
        {
          "internalType": "uint16",
          "name": "voteCount_",
          "type": "uint16"
        },
        {
          "internalType": "address[]",
          "name": "voters_",
          "type": "address[]"
        },
        {
          "internalType": "uint16",
          "name": "quorum_",
          "type": "uint16"
        },
        {
          "internalType": "uint8",
          "name": "status_",
          "type": "uint8"
        }
      ],
      "stateMutability": "view",
      "type": "function"
    },
    {
      "inputs": [
        {
          "internalType": "uint256",
          "name": "",
          "type": "uint256"
        }
      ],
      "name": "proposalContracts",
      "outputs": [
        {
          "internalType": "contract IProposalVote",
          "name": "",
          "type": "address"
        }
      ],
      "stateMutability": "view",
      "type": "function"
    },
    {
      "inputs": [
        {
          "internalType": "address",
          "name": "_proposalVote",
          "type": "address"
        },
        {
          "internalType": "uint8",
          "name": "_index",
          "type": "uint8"
        }
      ],
      "name": "voteOnProposal",
      "outputs": [],
      "stateMutability": "nonpayable",
      "type": "function"
    }
  ],
  "bytecode": "0x6080604052348015600f57600080fd5b506135d88061001f6000396000f3fe608060405234801561001057600080fd5b50600436106100885760003560e01c806398febabb1161005b57806398febabb1461012e578063bbc0bd131461014a578063e54e26b914610166578063f8cbe5241461019757610088565b80630d1f641a1461008d57806324b96c3b146100c257806344eb63f7146100f25780636c9364b214610110575b600080fd5b6100a760048036038101906100a29190610bb0565b6101b5565b6040516100b996959493929190610d9c565b60405180910390f35b6100dc60048036038101906100d79190610e12565b6102d9565b6040516100e99190610e9e565b60405180910390f35b6100fa610318565b6040516101079190610ec8565b60405180910390f35b610118610652565b6040516101259190610fc1565b60405180910390f35b61014860048036038101906101439190611170565b61075d565b005b610164600480360381019061015f919061120f565b610841565b005b610180600480360381019061017b9190610e12565b61091f565b60405161018e92919061124f565b60405180910390f35b61019f610993565b6040516101ac9190610fc1565b60405180910390f35b606080600060606000806002805490508810610206576040517f08c379a00000000000000000000000000000000000000000000000000000000081526004016101fd906112c4565b60405180910390fd5b6002888154811061021a576102196112e4565b5b9060005260206000200160009054906101000a900473ffffffffffffffffffffffffffffffffffffffff1673ffffffffffffffffffffffffffffffffffffffff1663dac001fe886040518263ffffffff1660e01b815260040161027d9190611313565b600060405180830381865afa15801561029a573d6000803e3d6000fd5b505050506040513d6000823e3d601f19601f820116820180604052508101906102c391906114a5565b9550955095509550955095509295509295509295565b600281815481106102e957600080fd5b906000526020600020016000915054906101000a900473ffffffffffffffffffffffffffffffffffffffff1681565b60008073ffffffffffffffffffffffffffffffffffffffff163373ffffffffffffffffffffffffffffffffffffffff1603610388576040517f08c379a000000000000000000000000000000000000000000000000000000000815260040161037f906115d2565b60405180910390fd5b600060405161039690610ada565b604051809103906000f0801580156103b2573d6000803e3d6000fd5b50905060008190508092506103c5610ae7565b33816000019073ffffffffffffffffffffffffffffffffffffffff16908173ffffffffffffffffffffffffffffffffffffffff168152505081816020019073ffffffffffffffffffffffffffffffffffffffff16908173ffffffffffffffffffffffffffffffffffffffff16815250506000803373ffffffffffffffffffffffffffffffffffffffff1673ffffffffffffffffffffffffffffffffffffffff16815260200190815260200160002081908060018154018082558091505060019003906000526020600020906002020160009091909190915060008201518160000160006101000a81548173ffffffffffffffffffffffffffffffffffffffff021916908373ffffffffffffffffffffffffffffffffffffffff16021790555060208201518160010160006101000a81548173ffffffffffffffffffffffffffffffffffffffff021916908373ffffffffffffffffffffffffffffffffffffffff1602179055505050600181908060018154018082558091505060019003906000526020600020906002020160009091909190915060008201518160000160006101000a81548173ffffffffffffffffffffffffffffffffffffffff021916908373ffffffffffffffffffffffffffffffffffffffff16021790555060208201518160010160006101000a81548173ffffffffffffffffffffffffffffffffffffffff021916908373ffffffffffffffffffffffffffffffffffffffff16021790555050506002829080600181540180825580915050600190039060005260206000200160009091909190916101000a81548173ffffffffffffffffffffffffffffffffffffffff021916908373ffffffffffffffffffffffffffffffffffffffff16021790555050505090565b60606001805480602002602001604051908101604052809291908181526020016000905b8282101561075457838290600052602060002090600202016040518060400160405290816000820160009054906101000a900473ffffffffffffffffffffffffffffffffffffffff1673ffffffffffffffffffffffffffffffffffffffff1673ffffffffffffffffffffffffffffffffffffffff1681526020016001820160009054906101000a900473ffffffffffffffffffffffffffffffffffffffff1673ffffffffffffffffffffffffffffffffffffffff1673ffffffffffffffffffffffffffffffffffffffff168152505081526020019060010190610676565b50505050905090565b600073ffffffffffffffffffffffffffffffffffffffff168473ffffffffffffffffffffffffffffffffffffffff16036107cc576040517f08c379a00000000000000000000000000000000000000000000000000000000081526004016107c390611664565b60405180910390fd5b8373ffffffffffffffffffffffffffffffffffffffff1663bcf2e0268484846040518463ffffffff1660e01b815260040161080993929190611684565b600060405180830381600087803b15801561082357600080fd5b505af1158015610837573d6000803e3d6000fd5b5050505050505050565b600073ffffffffffffffffffffffffffffffffffffffff168273ffffffffffffffffffffffffffffffffffffffff16036108b0576040517f08c379a00000000000000000000000000000000000000000000000000000000081526004016108a790611664565b60405180910390fd5b8173ffffffffffffffffffffffffffffffffffffffff16635521e3bf826040518263ffffffff1660e01b81526004016108e99190611313565b600060405180830381600087803b15801561090357600080fd5b505af1158015610917573d6000803e3d6000fd5b505050505050565b6001818154811061092f57600080fd5b90600052602060002090600202016000915090508060000160009054906101000a900473ffffffffffffffffffffffffffffffffffffffff16908060010160009054906101000a900473ffffffffffffffffffffffffffffffffffffffff16905082565b60606000803373ffffffffffffffffffffffffffffffffffffffff1673ffffffffffffffffffffffffffffffffffffffff168152602001908152602001600020805480602002602001604051908101604052809291908181526020016000905b82821015610ad157838290600052602060002090600202016040518060400160405290816000820160009054906101000a900473ffffffffffffffffffffffffffffffffffffffff1673ffffffffffffffffffffffffffffffffffffffff1673ffffffffffffffffffffffffffffffffffffffff1681526020016001820160009054906101000a900473ffffffffffffffffffffffffffffffffffffffff1673ffffffffffffffffffffffffffffffffffffffff1673ffffffffffffffffffffffffffffffffffffffff1681525050815260200190600101906109f3565b50505050905090565b611ed9806116ca83390190565b6040518060400160405280600073ffffffffffffffffffffffffffffffffffffffff168152602001600073ffffffffffffffffffffffffffffffffffffffff1681525090565b6000604051905090565b600080fd5b600080fd5b6000819050919050565b610b5481610b41565b8114610b5f57600080fd5b50565b600081359050610b7181610b4b565b92915050565b600060ff82169050919050565b610b8d81610b77565b8114610b9857600080fd5b50565b600081359050610baa81610b84565b92915050565b60008060408385031215610bc757610bc6610b37565b5b6000610bd585828601610b62565b9250506020610be685828601610b9b565b9150509250929050565b600081519050919050565b600082825260208201905092915050565b60005b83811015610c2a578082015181840152602081019050610c0f565b60008484015250505050565b6000601f19601f8301169050919050565b6000610c5282610bf0565b610c5c8185610bfb565b9350610c6c818560208601610c0c565b610c7581610c36565b840191505092915050565b600061ffff82169050919050565b610c9781610c80565b82525050565b600081519050919050565b600082825260208201905092915050565b6000819050602082019050919050565b600073ffffffffffffffffffffffffffffffffffffffff82169050919050565b6000610cf482610cc9565b9050919050565b610d0481610ce9565b82525050565b6000610d168383610cfb565b60208301905092915050565b6000602082019050919050565b6000610d3a82610c9d565b610d448185610ca8565b9350610d4f83610cb9565b8060005b83811015610d80578151610d678882610d0a565b9750610d7283610d22565b925050600181019050610d53565b5085935050505092915050565b610d9681610b77565b82525050565b600060c0820190508181036000830152610db68189610c47565b90508181036020830152610dca8188610c47565b9050610dd96040830187610c8e565b8181036060830152610deb8186610d2f565b9050610dfa6080830185610c8e565b610e0760a0830184610d8d565b979650505050505050565b600060208284031215610e2857610e27610b37565b5b6000610e3684828501610b62565b91505092915050565b6000819050919050565b6000610e64610e5f610e5a84610cc9565b610e3f565b610cc9565b9050919050565b6000610e7682610e49565b9050919050565b6000610e8882610e6b565b9050919050565b610e9881610e7d565b82525050565b6000602082019050610eb36000830184610e8f565b92915050565b610ec281610ce9565b82525050565b6000602082019050610edd6000830184610eb9565b92915050565b600081519050919050565b600082825260208201905092915050565b6000819050602082019050919050565b604082016000820151610f256000850182610cfb565b506020820151610f386020850182610cfb565b50505050565b6000610f4a8383610f0f565b60408301905092915050565b6000602082019050919050565b6000610f6e82610ee3565b610f788185610eee565b9350610f8383610eff565b8060005b83811015610fb4578151610f9b8882610f3e565b9750610fa683610f56565b925050600181019050610f87565b5085935050505092915050565b60006020820190508181036000830152610fdb8184610f63565b905092915050565b610fec81610ce9565b8114610ff757600080fd5b50565b60008135905061100981610fe3565b92915050565b600080fd5b600080fd5b7f4e487b7100000000000000000000000000000000000000000000000000000000600052604160045260246000fd5b61105182610c36565b810181811067ffffffffffffffff821117156110705761106f611019565b5b80604052505050565b6000611083610b2d565b905061108f8282611048565b919050565b600067ffffffffffffffff8211156110af576110ae611019565b5b6110b882610c36565b9050602081019050919050565b82818337600083830152505050565b60006110e76110e284611094565b611079565b90508281526020810184848401111561110357611102611014565b5b61110e8482856110c5565b509392505050565b600082601f83011261112b5761112a61100f565b5b813561113b8482602086016110d4565b91505092915050565b61114d81610c80565b811461115857600080fd5b50565b60008135905061116a81611144565b92915050565b6000806000806080858703121561118a57611189610b37565b5b600061119887828801610ffa565b945050602085013567ffffffffffffffff8111156111b9576111b8610b3c565b5b6111c587828801611116565b935050604085013567ffffffffffffffff8111156111e6576111e5610b3c565b5b6111f287828801611116565b92505060606112038782880161115b565b91505092959194509250565b6000806040838503121561122657611225610b37565b5b600061123485828601610ffa565b925050602061124585828601610b9b565b9150509250929050565b60006040820190506112646000830185610eb9565b6112716020830184610eb9565b9392505050565b7f496e76616c696420636f6e747261637420696e64657800000000000000000000600082015250565b60006112ae601683610bfb565b91506112b982611278565b602082019050919050565b600060208201905081810360008301526112dd816112a1565b9050919050565b7f4e487b7100000000000000000000000000000000000000000000000000000000600052603260045260246000fd5b60006020820190506113286000830184610d8d565b92915050565b600061134161133c84611094565b611079565b90508281526020810184848401111561135d5761135c611014565b5b611368848285610c0c565b509392505050565b600082601f8301126113855761138461100f565b5b815161139584826020860161132e565b91505092915050565b6000815190506113ad81611144565b92915050565b600067ffffffffffffffff8211156113ce576113cd611019565b5b602082029050602081019050919050565b600080fd5b6000815190506113f381610fe3565b92915050565b600061140c611407846113b3565b611079565b9050808382526020820190506020840283018581111561142f5761142e6113df565b5b835b81811015611458578061144488826113e4565b845260208401935050602081019050611431565b5050509392505050565b600082601f8301126114775761147661100f565b5b81516114878482602086016113f9565b91505092915050565b60008151905061149f81610b84565b92915050565b60008060008060008060c087890312156114c2576114c1610b37565b5b600087015167ffffffffffffffff8111156114e0576114df610b3c565b5b6114ec89828a01611370565b965050602087015167ffffffffffffffff81111561150d5761150c610b3c565b5b61151989828a01611370565b955050604061152a89828a0161139e565b945050606087015167ffffffffffffffff81111561154b5761154a610b3c565b5b61155789828a01611462565b935050608061156889828a0161139e565b92505060a061157989828a01611490565b9150509295509295509295565b7f5a65726f2041646472657373206e6f7420616c6c6f7765640000000000000000600082015250565b60006115bc601883610bfb565b91506115c782611586565b602082019050919050565b600060208201905081810360008301526115eb816115af565b9050919050565b7f496e76616c69642050726f706f73616c566f746520636f6e747261637420616460008201527f6472657373000000000000000000000000000000000000000000000000000000602082015250565b600061164e602583610bfb565b9150611659826115f2565b604082019050919050565b6000602082019050818103600083015261167d81611641565b9050919050565b6000606082019050818103600083015261169e8186610c47565b905081810360208301526116b28185610c47565b90506116c16040830184610c8e565b94935050505056fe6080604052348015600f57600080fd5b50611eba8061001f6000396000f3fe608060405234801561001057600080fd5b50600436106100575760003560e01c8063013cf08b1461005c5780635521e3bf14610090578063bcf2e026146100ac578063cceb68f5146100c8578063dac001fe146100e6575b600080fd5b61007660048036038101906100719190611032565b61011b565b604051610087959493929190611183565b60405180910390f35b6100aa60048036038101906100a5919061121d565b61029a565b005b6100c660048036038101906100c191906113ab565b6106ff565b005b6100d061090d565b6040516100dd91906116e7565b60405180910390f35b61010060048036038101906100fb919061121d565b610b99565b60405161011296959493929190611778565b60405180910390f35b6001818154811061012b57600080fd5b906000526020600020906005020160009150905080600001805461014e9061181d565b80601f016020809104026020016040519081016040528092919081815260200182805461017a9061181d565b80156101c75780601f1061019c576101008083540402835291602001916101c7565b820191906000526020600020905b8154815290600101906020018083116101aa57829003601f168201915b5050505050908060010180546101dc9061181d565b80601f01602080910402602001604051908101604052809291908181526020018280546102089061181d565b80156102555780601f1061022a57610100808354040283529160200191610255565b820191906000526020600020905b81548152906001019060200180831161023857829003601f168201915b5050505050908060020160009054906101000a900461ffff16908060040160009054906101000a900461ffff16908060040160029054906101000a900460ff16905085565b600073ffffffffffffffffffffffffffffffffffffffff163373ffffffffffffffffffffffffffffffffffffffff1603610309576040517f08c379a00000000000000000000000000000000000000000000000000000000081526004016103009061189a565b60405180910390fd5b6001805490508160ff1610610353576040517f08c379a000000000000000000000000000000000000000000000000000000000815260040161034a90611906565b60405180910390fd5b6000803373ffffffffffffffffffffffffffffffffffffffff1673ffffffffffffffffffffffffffffffffffffffff16815260200190815260200160002060008260ff1660ff16815260200190815260200160002060009054906101000a900460ff16156103f6576040517f08c379a00000000000000000000000000000000000000000000000000000000081526004016103ed90611972565b60405180910390fd5b600060018260ff168154811061040f5761040e611992565b5b906000526020600020906005020190506003808111156104325761043161110c565b5b8160040160029054906101000a900460ff1660038111156104565761045561110c565b5b03610496576040517f08c379a000000000000000000000000000000000000000000000000000000000815260040161048d90611a0d565b60405180910390fd5b60018160020160008282829054906101000a900461ffff166104b89190611a5c565b92506101000a81548161ffff021916908361ffff16021790555080600301339080600181540180825580915050600190039060005260206000200160009091909190916101000a81548173ffffffffffffffffffffffffffffffffffffffff021916908373ffffffffffffffffffffffffffffffffffffffff16021790555060016000803373ffffffffffffffffffffffffffffffffffffffff1673ffffffffffffffffffffffffffffffffffffffff16815260200190815260200160002060008460ff1660ff16815260200190815260200160002060006101000a81548160ff02191690831515021790555060028160040160026101000a81548160ff021916908360038111156105cd576105cc61110c565b5b02179055508060040160009054906101000a900461ffff1661ffff168160020160009054906101000a900461ffff1661ffff16106106995760038160040160026101000a81548160ff0219169083600381111561062d5761062c61110c565b5b0217905550806000016040516106439190611b35565b60405180910390207ff905f773c0a2b3d406f07062a5f684e9a9e9ee94a78543e4d7e3032a343fe1288260020160009054906101000a900461ffff1660405161068c9190611b4c565b60405180910390a26106fb565b806000016040516106aa9190611b35565b60405180910390207e68f5acd04b88bca43c904950734810e6d43b1f13f00da9e450355cad2735438260020160009054906101000a900461ffff166040516106f29190611b4c565b60405180910390a25b5050565b600073ffffffffffffffffffffffffffffffffffffffff163373ffffffffffffffffffffffffffffffffffffffff160361076e576040517f08c379a00000000000000000000000000000000000000000000000000000000081526004016107659061189a565b60405180910390fd5b610776610ef1565b83816000018190525082816020018190525081816080019061ffff16908161ffff168152505060018160a0019060038111156107b5576107b461110c565b5b908160038111156107c9576107c861110c565b5b815250506001819080600181540180825580915050600190039060005260206000209060050201600090919091909150600082015181600001908161080e9190611cfe565b5060208201518160010190816108249190611cfe565b5060408201518160020160006101000a81548161ffff021916908361ffff1602179055506060820151816003019080519060200190610864929190610f41565b5060808201518160040160006101000a81548161ffff021916908361ffff16021790555060a08201518160040160026101000a81548160ff021916908360038111156108b3576108b261110c565b5b02179055505050836040516108c89190611e01565b60405180910390207fd676bd5a867d12796d6ef62a604d07c83bdce30aaf9471431d7772e1ba09e222836040516108ff9190611b4c565b60405180910390a250505050565b60606001805480602002602001604051908101604052809291908181526020016000905b82821015610b9057838290600052602060002090600502016040518060c00160405290816000820180546109649061181d565b80601f01602080910402602001604051908101604052809291908181526020018280546109909061181d565b80156109dd5780601f106109b2576101008083540402835291602001916109dd565b820191906000526020600020905b8154815290600101906020018083116109c057829003601f168201915b505050505081526020016001820180546109f69061181d565b80601f0160208091040260200160405190810160405280929190818152602001828054610a229061181d565b8015610a6f5780601f10610a4457610100808354040283529160200191610a6f565b820191906000526020600020905b815481529060010190602001808311610a5257829003601f168201915b505050505081526020016002820160009054906101000a900461ffff1661ffff1661ffff16815260200160038201805480602002602001604051908101604052809291908181526020018280548015610b1d57602002820191906000526020600020905b8160009054906101000a900473ffffffffffffffffffffffffffffffffffffffff1673ffffffffffffffffffffffffffffffffffffffff1681526020019060010190808311610ad3575b505050505081526020016004820160009054906101000a900461ffff1661ffff1661ffff1681526020016004820160029054906101000a900460ff166003811115610b6b57610b6a61110c565b5b6003811115610b7d57610b7c61110c565b5b8152505081526020019060010190610931565b50505050905090565b60608060006060600080600073ffffffffffffffffffffffffffffffffffffffff163373ffffffffffffffffffffffffffffffffffffffff1603610c12576040517f08c379a0000000000000000000000000000000000000000000000000000000008152600401610c0990611e64565b60405180910390fd5b6001805490508760ff1610610c5c576040517f08c379a0000000000000000000000000000000000000000000000000000000008152600401610c5390611906565b60405180910390fd5b600060018860ff1681548110610c7557610c74611992565b5b90600052602060002090600502016040518060c0016040529081600082018054610c9e9061181d565b80601f0160208091040260200160405190810160405280929190818152602001828054610cca9061181d565b8015610d175780601f10610cec57610100808354040283529160200191610d17565b820191906000526020600020905b815481529060010190602001808311610cfa57829003601f168201915b50505050508152602001600182018054610d309061181d565b80601f0160208091040260200160405190810160405280929190818152602001828054610d5c9061181d565b8015610da95780601f10610d7e57610100808354040283529160200191610da9565b820191906000526020600020905b815481529060010190602001808311610d8c57829003601f168201915b505050505081526020016002820160009054906101000a900461ffff1661ffff1661ffff16815260200160038201805480602002602001604051908101604052809291908181526020018280548015610e5757602002820191906000526020600020905b8160009054906101000a900473ffffffffffffffffffffffffffffffffffffffff1673ffffffffffffffffffffffffffffffffffffffff1681526020019060010190808311610e0d575b505050505081526020016004820160009054906101000a900461ffff1661ffff1661ffff1681526020016004820160029054906101000a900460ff166003811115610ea557610ea461110c565b5b6003811115610eb757610eb661110c565b5b81525050905080600001519650806020015195508060400151945080606001519350806080015192508060a0015191505091939550919395565b6040518060c001604052806060815260200160608152602001600061ffff16815260200160608152602001600061ffff16815260200160006003811115610f3b57610f3a61110c565b5b81525090565b828054828255906000526020600020908101928215610fba579160200282015b82811115610fb95782518260006101000a81548173ffffffffffffffffffffffffffffffffffffffff021916908373ffffffffffffffffffffffffffffffffffffffff16021790555091602001919060010190610f61565b5b509050610fc79190610fcb565b5090565b5b80821115610fe4576000816000905550600101610fcc565b5090565b6000604051905090565b600080fd5b600080fd5b6000819050919050565b61100f81610ffc565b811461101a57600080fd5b50565b60008135905061102c81611006565b92915050565b60006020828403121561104857611047610ff2565b5b60006110568482850161101d565b91505092915050565b600081519050919050565b600082825260208201905092915050565b60005b8381101561109957808201518184015260208101905061107e565b60008484015250505050565b6000601f19601f8301169050919050565b60006110c18261105f565b6110cb818561106a565b93506110db81856020860161107b565b6110e4816110a5565b840191505092915050565b600061ffff82169050919050565b611106816110ef565b82525050565b7f4e487b7100000000000000000000000000000000000000000000000000000000600052602160045260246000fd5b6004811061114c5761114b61110c565b5b50565b600081905061115d8261113b565b919050565b600061116d8261114f565b9050919050565b61117d81611162565b82525050565b600060a082019050818103600083015261119d81886110b6565b905081810360208301526111b181876110b6565b90506111c060408301866110fd565b6111cd60608301856110fd565b6111da6080830184611174565b9695505050505050565b600060ff82169050919050565b6111fa816111e4565b811461120557600080fd5b50565b600081359050611217816111f1565b92915050565b60006020828403121561123357611232610ff2565b5b600061124184828501611208565b91505092915050565b600080fd5b600080fd5b7f4e487b7100000000000000000000000000000000000000000000000000000000600052604160045260246000fd5b61128c826110a5565b810181811067ffffffffffffffff821117156112ab576112aa611254565b5b80604052505050565b60006112be610fe8565b90506112ca8282611283565b919050565b600067ffffffffffffffff8211156112ea576112e9611254565b5b6112f3826110a5565b9050602081019050919050565b82818337600083830152505050565b600061132261131d846112cf565b6112b4565b90508281526020810184848401111561133e5761133d61124f565b5b611349848285611300565b509392505050565b600082601f8301126113665761136561124a565b5b813561137684826020860161130f565b91505092915050565b611388816110ef565b811461139357600080fd5b50565b6000813590506113a58161137f565b92915050565b6000806000606084860312156113c4576113c3610ff2565b5b600084013567ffffffffffffffff8111156113e2576113e1610ff7565b5b6113ee86828701611351565b935050602084013567ffffffffffffffff81111561140f5761140e610ff7565b5b61141b86828701611351565b925050604061142c86828701611396565b9150509250925092565b600081519050919050565b600082825260208201905092915050565b6000819050602082019050919050565b600082825260208201905092915050565b600061147e8261105f565b6114888185611462565b935061149881856020860161107b565b6114a1816110a5565b840191505092915050565b6114b5816110ef565b82525050565b600081519050919050565b600082825260208201905092915050565b6000819050602082019050919050565b600073ffffffffffffffffffffffffffffffffffffffff82169050919050565b6000611512826114e7565b9050919050565b61152281611507565b82525050565b60006115348383611519565b60208301905092915050565b6000602082019050919050565b6000611558826114bb565b61156281856114c6565b935061156d836114d7565b8060005b8381101561159e5781516115858882611528565b975061159083611540565b925050600181019050611571565b5085935050505092915050565b6115b481611162565b82525050565b600060c08301600083015184820360008601526115d78282611473565b915050602083015184820360208601526115f18282611473565b915050604083015161160660408601826114ac565b506060830151848203606086015261161e828261154d565b915050608083015161163360808601826114ac565b5060a083015161164660a08601826115ab565b508091505092915050565b600061165d83836115ba565b905092915050565b6000602082019050919050565b600061167d82611436565b6116878185611441565b93508360208202850161169985611452565b8060005b858110156116d557848403895281516116b68582611651565b94506116c183611665565b925060208a0199505060018101905061169d565b50829750879550505050505092915050565b600060208201905081810360008301526117018184611672565b905092915050565b600082825260208201905092915050565b6000611725826114bb565b61172f8185611709565b935061173a836114d7565b8060005b8381101561176b5781516117528882611528565b975061175d83611540565b92505060018101905061173e565b5085935050505092915050565b600060c082019050818103600083015261179281896110b6565b905081810360208301526117a681886110b6565b90506117b560408301876110fd565b81810360608301526117c7818661171a565b90506117d660808301856110fd565b6117e360a0830184611174565b979650505050505050565b7f4e487b7100000000000000000000000000000000000000000000000000000000600052602260045260246000fd5b6000600282049050600182168061183557607f821691505b602082108103611848576118476117ee565b5b50919050565b7f5a65726f2061646472657373206973206e6f7420616c6c6f7765640000000000600082015250565b6000611884601b8361106a565b915061188f8261184e565b602082019050919050565b600060208201905081810360008301526118b381611877565b9050919050565b7f4f7574206f6620626f756e642100000000000000000000000000000000000000600082015250565b60006118f0600d8361106a565b91506118fb826118ba565b602082019050919050565b6000602082019050818103600083015261191f816118e3565b9050919050565b7f596f7527766520766f74656420616c7265616479000000000000000000000000600082015250565b600061195c60148361106a565b915061196782611926565b602082019050919050565b6000602082019050818103600083015261198b8161194f565b9050919050565b7f4e487b7100000000000000000000000000000000000000000000000000000000600052603260045260246000fd5b7f546869732070726f706f73616c20686173206265656e20616363657074656400600082015250565b60006119f7601f8361106a565b9150611a02826119c1565b602082019050919050565b60006020820190508181036000830152611a26816119ea565b9050919050565b7f4e487b7100000000000000000000000000000000000000000000000000000000600052601160045260246000fd5b6000611a67826110ef565b9150611a72836110ef565b9250828201905061ffff811115611a8c57611a8b611a2d565b5b92915050565b600081905092915050565b60008190508160005260206000209050919050565b60008154611abf8161181d565b611ac98186611a92565b94506001821660008114611ae45760018114611af957611b2c565b60ff1983168652811515820286019350611b2c565b611b0285611a9d565b60005b83811015611b2457815481890152600182019150602081019050611b05565b838801955050505b50505092915050565b6000611b418284611ab2565b915081905092915050565b6000602082019050611b6160008301846110fd565b92915050565b60006020601f8301049050919050565b600082821b905092915050565b600060088302611bb47fffffffffffffffffffffffffffffffffffffffffffffffffffffffffffffffff82611b77565b611bbe8683611b77565b95508019841693508086168417925050509392505050565b6000819050919050565b6000611bfb611bf6611bf184610ffc565b611bd6565b610ffc565b9050919050565b6000819050919050565b611c1583611be0565b611c29611c2182611c02565b848454611b84565b825550505050565b600090565b611c3e611c31565b611c49818484611c0c565b505050565b5b81811015611c6d57611c62600082611c36565b600181019050611c4f565b5050565b601f821115611cb257611c8381611a9d565b611c8c84611b67565b81016020851015611c9b578190505b611caf611ca785611b67565b830182611c4e565b50505b505050565b600082821c905092915050565b6000611cd560001984600802611cb7565b1980831691505092915050565b6000611cee8383611cc4565b9150826002028217905092915050565b611d078261105f565b67ffffffffffffffff811115611d2057611d1f611254565b5b611d2a825461181d565b611d35828285611c71565b600060209050601f831160018114611d685760008415611d56578287015190505b611d608582611ce2565b865550611dc8565b601f198416611d7686611a9d565b60005b82811015611d9e57848901518255600182019150602085019450602081019050611d79565b86831015611dbb5784890151611db7601f891682611cc4565b8355505b6001600288020188555050505b505050505050565b6000611ddb8261105f565b611de58185611a92565b9350611df581856020860161107b565b80840191505092915050565b6000611e0d8284611dd0565b915081905092915050565b7f5a65726f2061646472657373206e6f7420616c6c6f7765642100000000000000600082015250565b6000611e4e60198361106a565b9150611e5982611e18565b602082019050919050565b60006020820190508181036000830152611e7d81611e41565b905091905056fea264697066735822122073c8045394214b6b5b1efcad6a37eeabcb3fb4f05f9b857adb4dbb6b5c444e7a64736f6c634300081b0033a26469706673582212208525e8159d1e7a19f7f2653d8d2e1a7ad10649e83210a2c06cac305d8acb5bf264736f6c634300081b0033",
  "linkReferences": {},
  "deployedLinkReferences": {}
}